:020000040800F2
:10000000005000208D2500087D2000088520000874
:100010008D200008952000089D20000800000000A9
:10002000000000000000000000000000A520000803
:10003000B120000800000000BD200008C920000811
:10004000D5250008D5250008D5250008D5250008A8
:10005000D5250008D5250008D5250008D525000898
:10006000D5250008D5250008D5250008D52000088D
:10007000D5250008D5250008D5250008D525000878
:10008000D5250008D5250008D5250008D525000868
:10009000D5250008D5250008D5250008D525000858
:1000A000D5250008D5250008D5250008D525000848
:1000B00035250008D5250008D5250008D5250008D8
:1000C000D5250008D5250008D5250008D525000828
:1000D000D5250008D5250008D5250008D525000818
:1000E000D5250008D5250008D5250008000000000A
:1000F0000000000000000000000000000000000000
:0C01000000000000000000005FF808F1A3
:10010C0010B5054C237833B9044B13B10448AFF345
:10011C0000800123237010BD980000200000000017
:10012C004873000808B5034B1BB103490348AFF3F0
:10013C00008008BD000000009C00002048730008EF
:10014C0080F0004002E000BF81F0004142001FBF80
:10015C005FEA410392EA030F7FEA226C7FEA236C89
:10016C006AD04FEA1262D2EB1363C1BFD21841407E
:10017C0048404140B8BF5B42192B88BF704710F014
:10018C00004F40F4000020F07F4018BF404211F0B7
:10019C00004F41F4000121F07F4118BF494292EA1F
:1001AC00030F3FD0A2F1010241FA03FC10EB0C004B
:1001BC00C3F1200301FA03F100F0004302D54942D8
:1001CC0060EB4000B0F5000F13D3B0F1807F06D385
:1001DC0040084FEA310102F10102FE2A51D2B1F17D
:1001EC00004F40EBC25008BF20F0010040EA030072
:1001FC007047490040EB0000013A28BFB0F5000FF2
:10020C00EDD2B0FA80FCACF1080CB2EB0C0200FAA7
:10021C000CF0AABF00EBC25052421843BCBFD040F6
:10022C001843704792F0000F81F4000106BF80F470
:10023C0000000132013BB5E74FEA41037FEA226C33
:10024C0018BF7FEA236C21D092EA030F04D092F0FE
:10025C00000F08BF0846704790EA010F1CBF002032
:10026C00704712F07F4F04D1400028BF40F000408F
:10027C00704712F100723CBF00F50000704700F0AF
:10028C00004343F0FE4040F4000070477FEA2262D6
:10029C0016BF08467FEA23630146420206BF5FEAA7
:1002AC00412390EA010F40F4800070474FF00003A7
:1002BC0004E000BF10F0004348BF40425FEA000C6E
:1002CC0008BF704743F0964301464FF000001CE016
:1002DC0050EA010208BF70474FF000030AE000BF6C
:1002EC0050EA010208BF704711F0004302D54042AA
:1002FC0061EB41015FEA010C02BF8446014600201C
:10030C0043F0B64308BFA3F18053A3F50003BCFA36
:10031C008CF2083AA3EBC25310DB01FA02FC6344E3
:10032C0000FA02FCC2F12002BCF1004F20FA02F2EA
:10033C0043EB020008BF20F00100704702F12002DD
:10034C0001FA02FCC2F1200250EA4C0021FA02F23E
:10035C0043EB020008BF20EADC7070474FF0FF0C43
:10036C001CEAD0521EBF1CEAD15392EA0C0F93EA3E
:10037C000C0F6FD01A4480EA010C400218BF5FEAE0
:10038C0041211ED04FF0006343EA501043EA511153
:10039C00A0FB01310CF00040B1F5000F3EBF49004D
:1003AC0041EAD3715B0040EA010062F17F02FD2A51
:1003BC001DD8B3F1004F40EBC25008BF20F0010034
:1003CC00704790F0000F0CF0004C08BF49024CEA4B
:1003DC00502040EA51207F3AC2BFD2F1FF0340EADD
:1003EC00C250704740F400004FF00003013A5DDC4E
:1003FC0012F1190FDCBF00F000407047C2F100028F
:10040C00410021FA02F1C2F1200200FA02FC5FEA7B
:10041C00310040F1000053EA4C0308BF20EADC70C5
:10042C00704792F0000F00F0004C02BF400010F437
:10043C00000F013AF9D040EA0C0093F0000F01F0E4
:10044C00004C02BF490011F4000F013BF9D041EA06
:10045C000C018FE70CEAD15392EA0C0F18BF93EA08
:10046C000C0F0AD030F0004C18BF31F0004CD8D132
:10047C0080EA010000F00040704790F0000F17BFB9
:10048C0090F0004F084691F0000F91F0004F14D0FF
:10049C0092EA0C0F01D142020FD193EA0C0F03D157
:1004AC004B0218BF084608D180EA010000F000405A
:1004BC0040F0FE4040F40000704740F0FE4040F435
:1004CC00400070474FF0FF0C1CEAD0521EBF1CEAD4
:1004DC00D15392EA0C0F93EA0C0F69D0A2EB0302F2
:1004EC0080EA010C49024FEA402037D04FF080538C
:1004FC0043EA111143EA10130CF000408B4238BF51
:10050C005B0042F17D024FF4000C8B4224BF5B1A5E
:10051C0040EA0C00B3EB510F24BFA3EB510340EAAC
:10052C005C00B3EB910F24BFA3EB910340EA9C005A
:10053C00B3EBD10F24BFA3EBD10340EADC001B01CA
:10054C0018BF5FEA1C1CE0D1FD2A3FF650AF8B426E
:10055C0040EBC25008BF20F0010070470CF0004C7B
:10056C004CEA50207F32C2BFD2F1FF0340EAC250A6
:10057C00704740F400004FF00003013A37E792F067
:10058C00000F00F0004C02BF400010F4000F013AC5
:10059C00F9D040EA0C0093F0000F01F0004C02BFC0
:1005AC00490011F4000F013BF9D041EA0C0195E729
:1005BC000CEAD15392EA0C0F08D142027FF47DAFC2
:1005CC0093EA0C0F7FF470AF084676E793EA0C0FB2
:1005DC0004D14B023FF44CAF08466EE730F0004CB0
:1005EC0018BF31F0004CCAD130F000427FF45CAF40
:1005FC0031F000437FF43CAF5FE700BF4FEA4002AD
:10060C00B2F1FE4F0FD34FF09E03B3EB12620DD934
:10061C004FEA002343F0004310F0004F23FA02F09E
:10062C0018BF404270474FF00000704712F1610F45
:10063C0001D1420205D110F0004008BF6FF000401C
:10064C0070474FF00000704780B584B000AF1021A8
:10065C00494803F03DFB0346FB73FB7B002B16D193
:10066C00464B1B7883F00103DBB2002B0FD0444BBD
:10067C001B7883F00103DBB2002B08D03F4B012227
:10068C001A7001F0FBFF03463E4A136059E0FB7BF6
:10069C00012B33D1394B1B78002B2FD001F0EEFFFF
:1006AC000246384B1B68D31ABB60344B00221A70BD
:1006BC00334B00221A70BB68322B41D9BB6841F214
:1006CC00873293423CD8304B1B780133DAB22E4B35
:1006DC001A7001F0D3FF03462C4A13602A4B1B7887
:1006EC00012B07D9284B00221A70294B00221A70B3
:1006FC0002233CE0264B01221A7021E0FB7B002BED
:10070C001FD11E4B1B78002B1BD01D4B1B7883F06D
:10071C000103DBB2002B14D001F0B0FF0246194BE1
:10072C001B68D31A7B607B6841F28732934208D9ED
:10073C00134B01221A70164B00221A70032316E079
:10074C0000BF134B1B78012B10D101F097FF024611
:10075C000E4B1B68D31AB3F5C87F07D90C4B00227C
:10076C001A70094B00221A70012300E0002318466E
:10077C001037BD4680BD00BF000C0140D4000020E6
:10078C00DD000020D8000020E4000020E80000205C
:10079C00EC00002080B500AF20211F4803F098FA30
:1007AC000346002B18D11D4B1B7883F00103DBB2E1
:1007BC00002B11D001F062FF0246194B1B68D31AB3
:1007CC00322B09D9154B01221A7001F057FF034641
:1007DC00134A136001231DE020210F4803F078FA1F
:1007EC000346012B15D10D4B1B78002B11D001F0BA
:1007FC0045FF02460A4B1B68D31A322B09D9074B0B
:10080C0000221A7001F03AFF0346054A13600023D8
:10081C0000E00023184680BD000C0140DC000020E5
:10082C00E000002080B500AF01211F4803F050FA12
:10083C000346002B18D11D4B1B7883F00103DBB250
:10084C00002B11D001F01AFF0246194B1B68D31A6A
:10085C00322B09D9154B01221A7001F00FFF0346F8
:10086C00134A136001231DE001210F4803F030FAF5
:10087C000346012B15D10D4B1B78002B11D001F029
:10088C00FDFE02460A4B1B68D31A322B09D9074BC3
:10089C0000221A7001F0F2FE0346054A1360002391
:1008AC0000E00023184680BD000C0140B40000207D
:1008BC00B800002080B500AF02211F4803F008FAF1
:1008CC000346002B18D11D4B1B7883F00103DBB2C0
:1008DC00002B11D001F0D2FE0246194B1B68D31A23
:1008EC00322B09D9154B01221A7001F0C7FE0346B1
:1008FC00134A136001231DE002210F4803F0E8F9AD
:10090C000346012B15D10D4B1B78002B11D001F098
:10091C00B5FE02460A4B1B68D31A322B09D9074B7A
:10092C0000221A7001F0AAFE0346054A1360002348
:10093C0000E00023184680BD000C0140BC000020E4
:10094C00C000002080B500AF4FF480711F4803F049
:10095C00BFF90346002B18D11D4B1B7883F0010304
:10096C00DBB2002B11D001F089FE0246194B1B683B
:10097C00D31A322B09D9164B01221A7001F07EFEC4
:10098C000346144A136001231EE04FF480710F4894
:10099C0003F09EF90346012B15D10D4B1B78002B50
:1009AC0011D001F06BFE02460A4B1B68D31A322B96
:1009BC0009D9074B00221A7001F060FE0346054A64
:1009CC001360002300E00023184680BD000C01409A
:1009DC00C4000020C800002080B500AF08211F48CB
:1009EC0003F076F90346002B18D11D4B1B7883F0CE
:1009FC000103DBB2002B11D001F040FE0246194B73
:100A0C001B68D31A322B09D9154B01221A7001F02D
:100A1C0035FE0346134A136001231DE008210F48DD
:100A2C0003F056F90346012B15D10D4B1B78002B07
:100A3C0011D001F023FE02460A4B1B68D31A322B4D
:100A4C0009D9074B00221A7001F018FE0346054A1B
:100A5C001360002300E00023184680BD000C014009
:100A6C00CC000020D000002080B582B000AF7860B0
:100A7C00074A7B6813600C21786805F047F9044B32
:100A8C001B681B6800221A6400BF0837BD4680BD76
:100A9C000001002080B582B000AF78600B46FB707F
:100AAC000E4AFB7813700E4B01221A700D4A7B68AC
:100ABC00136001F0E3FD03460B4A136001F0DEFD09
:100ACC0003460A4A13600A4B1B681B684FF41672E4
:100ADC001A6400BF0837BD4680BD00BFFC00002073
:100AEC00ED000020F8000020F0000020F4000020B1
:100AFC000001002080B500AF234B1B78022B16D0D1
:100B0C00022B3EDC002B37D0012B3AD11F4B1B782C
:100B1C00002B33D001F0B2FD02461D4B1B68D21ADC
:100B2C001C4B1B689A4229D900F03CF826E001F0D6
:100B3C00A5FD0246184B1B68D31A642B20D9174B02
:100B4C001B781A464FF4967303FB02F2144B1B6886
:100B5C001B681A64114B1B78032B04D00F4B1B78AA
:100B6C000133DBB200E000230C4A137001F086FD68
:100B7C000346094A136003E000BF02E000BF00E037
:100B8C0000BF00BF80BD00BFFC000020ED000020B6
:100B9C00F0000020F8000020F400002000000020ED
:100BAC000001002080B400AF074B1B681B680022BB
:100BBC001A64064B00221A70054B00221A7000BFF3
:100BCC00BD4680BC704700BF00010020ED00002036
:100BDC00FC00002080B500AF01F050FD02460B4B2D
:100BEC001B68D31A42F2107293420CD9084B1B7833
:100BFC00032B08D00749084800F004FA01F03EFD29
:100C0C000346024A136000BF80BD00BF0C010020E8
:100C1C0008010020070100200601002080B500AF6C
:100C2C0001F00EF80849094801F056F80346002B6C
:100C3C0007D0074B1B6807489847074B1B680748AA
:100C4C00984700BF80BD00BF1400002008000020A2
:100C5C002C00002004000020300000201000002098
:100C6C0080B500AF01F0A0FA03461A46174B1A7074
:100C7C00174B1A78154B1B789A420BD0144B1B78D8
:100C8C00032B07D1134B1B78134A127811461846C5
:100C9C0000F0FEF90D4B1A780D4B1A700B4B1B78AC
:100CAC00022B03D10D4801F031FB08E0074B1B78F8
:100CBC00032B04D1084A0749094801F09BFB01F0BA
:100CCC0001FBFFF717FF00BF80BD00BF080100202C
:100CDC000901002006010020070100200501002069
:100CEC000401002080B500AF00F008FF00F020FFE9
:100CFC000346002B16D000F027FF03461A460A4B7A
:100D0C005A600A4B1B6808489847074B93E8070042
:100D1C0000F02AFF0346002B04D0022142F210708F
:100D2C00FFF7B8FE00BF80BD1C000020280000208B
:100D3C0080B582B000AF01F0A1FC02461F4B1B68CE
:100D4C00D31A642B36D901F0D7FB78601C4B1B7877
:100D5C00022B08D11B4B1B787A6892B211461846AD
:100D6C0000F072F802E0786800F0F0F8144B1B7891
:100D7C00032B09D1144B1B78144A1178144A12789E
:100D8C00184600F02BF807E0104B1B78104A12782D
:100D9C001146184600F0BAF80E4B9B680E4A926842
:100DAC00D2B21146184600F091F801F067FC0346E8
:100DBC00024A136000BF0837BD4680BD10010020F9
:100DCC00080100200501002004010020060100207C
:100DDC0007010020040000201000002080B582B024
:100DEC0000AF0346FB710B46BB7113467B71FB795D
:100DFC00002B02D0012B10D01FE0002203214E202B
:100E0C0000F004FC0F494E2000F0E6FB7A79BB7928
:100E1C001146184600F07AF80FE0002200214E200F
:100E2C0000F0F4FB07494E2000F0D6FB7A79BB7931
:100E3C001146184600F06AF800BF00BF0837BD46DF
:100E4C0080BD00BF6073000880B582B000AF034660
:100E5C000A46FB711346BB80FB79022B22D0022B76
:100E6C002EDC002B02D0012B0ED029E001220A210E
:100E7C004E2000F0CBFB14494E2000F0ADFBBB889C
:100E8C00184600F063F81BE0012207214E2000F009
:100E9C00BDFB0D494E2000F09FFBBB88184600F0AF
:100EAC0055F80DE0012204214E2000F0AFFB06495D
:100EBC004E2000F091FBBB88184600F047F800BFAD
:100ECC0000BF0837BD4680BD6073000880B58CB08C
:100EDC0002AF78600B46FB70FB7807F108000093BB
:100EEC00DF237A68084905F079FD002207214E209E
:100EFC0000F08CFB07F1080319464E2000F06CFB48
:100F0C0000BF2837BD4680BD6473000880B584B02F
:100F1C0000AF03460A46FB711346BB71FA79BB79E5
:100F2C0007F10800084905F059FD002200214E2068
:100F3C0000F06CFB07F1080319464E2000F04CFB47
:100F4C0000BF1037BD4680BD7073000880B588B0F7
:100F5C0002AF78607B68214AA2FB0323DB0AFB7596
:100F6C007A681E4BA3FB0213DB0A4FF4616101FB91
:100F7C0003F3D31A1A4AA2FB03235B09BB757B68E4
:100F8C00164AA2FB0312D20A4FF4616101FB02F272
:100F9C009A1A134BA3FB021359090B461B015B1A3C
:100FAC009B00D11A0B467B75FA7DB97D7B7D07F1D1
:100FBC000C0000930B460B4905F010FD0122042197
:100FCC004E2000F023FB07F10C0319464E2000F0D5
:100FDC0003FB00BF1837BD4680BD00BFC5B3A2914F
:100FEC00898888887C73000880B483B000AF7860EF
:100FFC00034A7B68136000BF0C37BD4680BC70474A
:10100C001401002080B586B002AF786039600123EE
:10101C00FB730023BB811D4B186807F10F024FF6C1
:10102C00FF7300930123D02102F0AEFF174B186819
:10103C0007F10C024FF6FF7300930223D02103F04B
:10104C00A1F83B7B1B09DBB21A46920013445B00F0
:10105C00DAB23B7B03F00F03DBB21344DAB23B682A
:10106C001A707B7B1B09DBB21A46920013445B009F
:10107C00DAB27B7B03F00F03DBB21344DAB27B688A
:10108C001A7000BF1037BD4680BD00BF1401002090
:10109C0080B586B002AF03460A46FB711346BB719E
:1010AC0000233B73BB791F4AA2FB0323DB08DBB293
:1010BC001B0158B2BA791B4BA3FB0213D9080B4680
:1010CC009B000B445B00D31ADBB25BB203435BB2F5
:1010DC00DBB2BB73FB79134AA2FB0323DB08DBB245
:1010EC001B0158B2FA790F4BA3FB0213D9080B461C
:1010FC009B000B445B00D31ADBB25BB203435BB2C5
:10110C00DBB2FB73084B186807F10C024FF0FF338E
:10111C0000930423D02102F037FF00BF1037BD46E7
:10112C0080BD00BFCDCCCCCC14010020B0B5ADF54A
:10113C00886D00AF07F58863A3F23443186007F598
:10114C008863A3F58763196007F58863A3F23C43B2
:10115C001A60002387F83F3407F58863A3F2344301
:10116C001B6823F47F7323F00303C7F82C3402F0BD
:10117C009BFA0023C7F8383414E0D7F838345A00F7
:10118C00D7F82C3413441B8899B207F58863A3F560
:10119C008363D7F8382423F81210D7F83834013386
:1011AC00C7F83834D7F83834B3F5007FE5D307F5F2
:1011BC008863A3F234431A68D7F82C34D31AC7F8CF
:1011CC0028340023C7F834341AE0D7F834345B00E1
:1011DC0007F58862A2F5876212681344D7F82824B1
:1011EC005108D7F834240A44198807F58863A3F505
:1011FC00836323F81210D7F834340133C7F834342E
:10120C0007F58863A3F23C43D7F834241B689A4251
:10121C00DBD307F58863A3F5856300221A6007F515
:10122C008863A3F58563D7F82C249A6007F5886347
:10123C00A3F585630122DA6007F1140207F11803A4
:10124C001146184602F018FB034687F83F3497F80E
:10125C003F34002B04D002F04DFA97F83F3431E0C4
:10126C000023C7F8303422E0D7F830345A00D7F8CE
:10127C002C34D11807F58863A3F58363D7F8302491
:10128C0033F812309BB200221C46154622462B46E0
:10129C00012002F099F9034687F83F3497F83F3460
:1012AC00002B0AD1D7F830340133C7F83034D7F8D3
:1012BC003034B3F5007FD7D300E000BF02F01AFA48
:1012CC0097F83F34184607F58867BD46B0BD80B423
:1012DC0087B000AFF860B9607A6000237B610DE0E5
:1012EC00FA687B695B00B9680B44128892B21A8069
:1012FC00FB680233FB607B6901337B617A697B6835
:10130C009A42EDD300BF00BF1C37BD4680BC70476E
:10131C002DE9F04387B000AFF860B9607A606B4696
:10132C001E467B6859080B46013B7B6100238846AF
:10133C0099464FF000024FF000034FEA091343EABD
:10134C0018734FEA081200230C461D464FF000029A
:10135C004FF000032B0143EA147322014B000733B7
:10136C00DB08DB00ADEB030D6B4601335B085B0068
:10137C003B617A68B968386905F084FB7A68396929
:10138C00F868FFF7D3FEB54600BF1C37BD46BDE875
:10139C00F0832DE9F04387B000AFF860B9607A6054
:1013AC006B461E467B6859080B46013B7B6100234C
:1013BC00884699464FF000024FF000034FEA09139C
:1013CC0043EA18734FEA081200230C461D464FF0EF
:1013DC0000024FF000032B0143EA147322014B006F
:1013EC000733DB08DB00ADEB030D6B4601335B0809
:1013FC005B003B617A683969F868FFF768FF7A68C7
:10140C003969B86805F03EFBB54600BF1C37BD46D0
:10141C00BDE8F08390B585B000AF78601A4BFB60E7
:10142C007B681B7883F00103DBB2002B1FD07B6839
:10143C009B681846FEF73EFF04467B685A687B683B
:10144C009B68D31A1846FEF735FF0346F968184611
:10145C00FEF784FF034619462046FEF777FE034647
:10146C001846FFF7CBF802467B689A6006E07B686B
:10147C005A687B689A607B6800221A707B689B684C
:10148C0018461437BD4690BD9A99993E80B586B0E2
:10149C0002AF0346FB710B46BB7113467B71264BA7
:1014AC001868FB7999B24FF0FF33012203F0D6F89C
:1014BC000346FB73FB7B002B00D0F0E700BFBB792E
:1014CC0023F00F03BB73BB791B017B73BA7B7B7956
:1014DC001343DBB243F00C03DBB23B72BA7B7B7978
:1014EC001343DBB243F00803DBB27B727A7B7B796C
:1014FC001343DBB243F00C03DBB2BB727A7B7B7918
:10150C001343DBB243F00803DBB2FB720A4B1868DF
:10151C00FB7999B207F108024FF0FF3300930423D3
:10152C0002F032FD0346FB73052001F0B1F8FB7BA2
:10153C0018461037BD4680BD1801002080B582B01A
:10154C0000AF03460A46FB711346BB71B979FB79B0
:10155C0000221846FFF79AFF00BF0837BD4680BD32
:10156C0080B582B000AF03460A46FB711346BB71CF
:10157C00B979FB7901221846FFF788FF00BF0837BD
:10158C00BD4680BD80B582B000AF03463960FB71AB
:10159C00104A3B681360282001F07AF8FB7930215F
:1015AC001846FFF7CBFFFB7902211846FFF7C6FF61
:1015BC00FB790C211846FFF7C1FFFB790121184676
:1015CC00FFF7BCFFFB79184600F047F800BF08375F
:1015DC00BD4680BD1801002080B582B000AF034627
:1015EC003960FB7109E03B681A78FB7911461846A3
:1015FC00FFF7B6FF3B6801333B603B681B78002B61
:10160C00F1D100BF00BF0837BD4680BD80B584B0A6
:10161C0000AF0346FB710B46BB7113467B71BB7964
:10162C000F2B16D87B79012B13D87B79002B03D188
:10163C00BB79803BDBB202E0BB79403BDBB2FB7396
:10164C00FA7BFB7911461846FFF778FF012001F071
:10165C001FF800BF1037BD4680BD80B582B000AF0B
:10166C000346FB71FB7901211846FFF767FF022047
:10167C0001F00EF800BF0837BD4680BD80B500AF45
:10168C0000F0A4FF00F034F800F0DCF900F0BCF935
:10169C0000F0C8F800F0F4F800F086F800F03EF91D
:1016AC000F494E20FFF76EFF0D4800F085FA0C48ED
:1016BC00FFF79AFC0B4800F04DFD0B48FFF7D4F9EF
:1016CC000A4800F009FAFFF70DFBFFF783FAFFF762
:1016DC00A5FAFFF7C5FAFFF72BFB00BFF3E700BF36
:1016EC0090010020E40100202C0200201C010020AD
:1016FC0080B594B000AF07F12803282200211846CA
:10170C0005F08CF907F1140300221A605A609A60F4
:10171C00DA601A613B1D00221A605A609A60DA6026
:10172C000123BB624FF48033FB6200233B63012334
:10173C00BB6302237B644FF48033BB644FF4E01330
:10174C00FB6407F12803184603F03CFC0346002B0E
:10175C0001D000F0BBF90F237B610223BB61002396
:10176C00FB614FF480633B6200237B6207F114033F
:10177C000221184603F0A8FE0346002B01D000F00E
:10178C00A5F902237B604FF40043FB603B1D184618
:10179C0004F028F80346002B01D000F097F900BFA5
:1017AC005037BD4680BD000080B584B000AF3B1DF6
:1017BC0000221A605A609A60184B194A1A60174B2B
:1017CC0000229A60154B00221A73144B00221A75D2
:1017DC00124B4FF46022DA61104B00225A600F4B0F
:1017EC0001221A610D4800F077FF0346002B01D04F
:1017FC0000F06CF900237B600123BB600023FB60CD
:10180C003B1D1946054801F02FF90346002B01D06A
:10181C0000F05CF900BF1037BD4680BD1C010020F4
:10182C000024014080B500AF124B134A1A60114BD3
:10183C00124A5A600F4B00229A600E4B0022DA605B
:10184C000C4B4FF480421A610A4B00225A61094B2F
:10185C0000229A61074B0022DA61064B00221A62C1
:10186C00044802F04DFA0346002B01D000F02EF98B
:10187C0000BF80BD9001002000540040A0860100F4
:10188C0080B586B000AF07F1080300221A605A60D9
:10189C009A60DA603B4600221A605A601E4B4FF089
:1018AC0080421A601C4B40F24B425A601A4B002289
:1018BC009A60194B4FF6FF72DA60174B00221A61CF
:1018CC00154B00229A61144804F0F8F80346002BDB
:1018DC0001D000F0FBF84FF48053BB6007F1080314
:1018EC0019460D4804F066FC0346002B01D000F0AD
:1018FC00EDF800233B6000237B603B46194606480D
:10190C0004F0FCFF0346002B01D000F0DFF800BF11
:10191C001837BD4680BD00BFE401002080B58EB0F5
:10192C0000AF07F1280300221A605A609A60DA604F
:10193C0007F1200300221A605A603B1D00221A6036
:10194C005A609A60DA601A615A619A612C4B2D4A7E
:10195C001A602B4B63225A60294B00229A60284B49
:10196C0040F2CF22DA60264B00221A61244B8022EF
:10197C009A61234804F0A2F80346002B01D000F032
:10198C00A5F84FF48053BB6207F1280319461C4895
:10199C0004F010FC0346002B01D000F097F8184817
:1019AC0004F05CF90346002B01D000F08FF8002303
:1019BC003B6200237B6207F120031946104804F0B8
:1019CC009DFF0346002B01D000F080F860237B6064
:1019DC000023BB600023FB6000237B613B1D0C22BA
:1019EC001946074804F024FB0346002B01D000F0F5
:1019FC006DF8034800F008FB00BF3837BD4680BDCA
:101A0C002C0200200008004080B582B000AF0C4BC7
:101A1C005B690B4A43F001035361094B5B6903F0AB
:101A2C0001037B607B68002200210B2001F0A7FBE7
:101A3C000B2001F0C0FB00BF0837BD4680BD00BFC6
:101A4C000010024080B588B000AF07F110030022EF
:101A5C001A605A609A60DA601A4B9B69194A43F013
:101A6C0020039361174B9B6903F02003FB60FB6819
:101A7C00144B9B69134A43F004039361114B9B690C
:101A8C0003F00403BB60BB680E4B9B690D4A43F02B
:101A9C00080393610B4B9B6903F008037B607B6825
:101AAC0040F23B133B6100237B610123BB6107F1D7
:101ABC0010031946044801F087FF00BF2037BD46CC
:101ACC0080BD00BF00100240000C014080B400AF8C
:101ADC0072B600BF00BFFDE780B582B000AF786082
:101AEC00054A7B681360044B1B68184601F0C2F969
:101AFC0000BF0837BD4680BD7402002080B500AF22
:101B0C00094B1B68184601F0A7F8034603F48073D1
:101B1C00B3F5807F06D0044B1B680122034918469D
:101B2C0000F0B2FE00BF80BD7402002078020020DD
:101B3C0080B400AF034B1B78DBB21846BD4680BCAB
:101B4C00704700BF7C02002080B400AF044B002221
:101B5C001A70044B1B681846BD4680BC704700BF0A
:101B6C007C0200207802002080B485B000AF3B1DC1
:101B7C0083E80700FB68B3F5966F01DA012300E0F8
:101B8C00002318461437BD4680BC704780B483B020
:101B9C0000AF7860064B1B687A689A4202D1054BFD
:101BAC0001221A7000BF0C37BD4680BC704700BFC5
:101BBC00740200207C02002080B483B000AF7860F7
:101BCC00034A7B68136000BF0C37BD4680BC70476E
:101BDC008002002080B487B000AF78603960FF23AA
:101BEC00FB7500233B6121E03B697A6813441A784A
:101BFC00FB7D5340FB750023FB6011E097F9173018
:101C0C00002B07DAFB7D5B005BB283F031035BB228
:101C1C00FB7502E0FB7D5B00FB75FB680133FB6031
:101C2C00FB68072BEADD3B6901333B613A693B6892
:101C3C009A42D9DBFB7D18461C37BD4680BC7047E9
:101C4C0080B584B002AF154B1B7883F00103DBB277
:101C5C00002B1CD024233B7100237B71104B186884
:101C6C003A1D4FF0FF3300930223882102F08CF9C8
:101C7C000346002B03D0094B00221A7007E0074BD8
:101C8C0001221A7000F0FAFC0346064A1360034B5B
:101C9C001B7818460837BD4680BD00BF8402002063
:101CAC00800200208802002080B500AF00F0E6FC26
:101CBC000246074B1B68D31A142B05D9054B1B780E
:101CCC00002B01D0012300E00023184680BD00BF8B
:101CDC00880200208402002080B588B002AF7860B2
:101CEC003960FFF7E1FF0346002B6CD0384B1868C6
:101CFC0007F10C024FF0FF3300930623882102F00A
:101D0C0041FA0346002B01D000235DE007F10C03E0
:101D1C0002211846FFF75EFF03461A46BB7B9A4228
:101D2C000BD107F10C03033302211846FFF752FFC6
:101D3C0003461A467B7C9A4201D0002344E03B7B4D
:101D4C001B021AB27B7B1BB213431BB2FB82FB7BC5
:101D5C001B021AB23B7C1BB213431BB2BB82FB8A25
:101D6C001846FEF7A3FA03461A491846FEF7AAFBD3
:101D7C00034619491846FEF7F1FA03461749184667
:101D8C00FEF7E2F903461846FEF738FC02467B687C
:101D9C001A60BB8A1846FEF789FA03460D491846A5
:101DAC00FEF790FB03460E491846FEF7D7FA03469A
:101DBC001846FEF723FC02463B681A60094B0022CA
:101DCC001A70012300E0002318461837BD4680BD69
:101DDC008002002000FF7F4700002F4300003442A8
:101DEC000000C8428402002080B485B000AF154BBF
:101DFC009B69144A43F001039361124B9B6903F0F6
:101E0C000103BB60BB680F4BDB690E4A43F0805388
:101E1C00D3610C4BDB6903F080537B607B680A4B0E
:101E2C005B68FB60FB6823F0E063FB60FB6843F0DE
:101E3C000073FB60044AFB68536000BF1437BD4657
:101E4C0080BC7047001002400000014080B588B093
:101E5C0000AF786007F1100300221A605A609A6094
:101E6C00DA607B681B68284A934249D1274B9B69EF
:101E7C00264A43F400739361244B9B6903F400736B
:101E8C00FB60FB68214B9B69204A43F00403936180
:101E9C001E4B9B6903F00403BB60BB6801233B61D1
:101EAC0003237B6107F110031946194801F08CFDDF
:101EBC00184B194A1A60174B00225A60154B002216
:101ECC009A60144B8022DA60124B4FF480721A61C4
:101EDC00104B4FF480625A610E4B00229A610D4BED
:101EEC000022DA610B4801F081F90346002B01D086
:101EFC00FFF7ECFD7B68074A1A62064A7B6853625F
:101F0C0000BF2037BD4680BD0024014000100240B8
:101F1C00000801404C0100200800024080B588B048
:101F2C0000AF786007F1100300221A605A609A60C3
:101F3C00DA607B681B68154A934223D1144B9B696A
:101F4C00134A43F008039361114B9B6903F0080398
:101F5C00FB60FB68C0233B6112237B610323FB61A5
:101F6C0007F1100319460B4801F02EFD084BDB69F5
:101F7C00074A43F40013D361054BDB6903F40013E8
:101F8C00BB60BB6800BF2037BD4680BD005400401D
:101F9C0000100240000C014080B584B000AF7860A6
:101FAC007B681B68B3F1804F14D1154BDB69144A65
:101FBC0043F00103D361124BDB6903F00103FB60B7
:101FCC00FB68002200211C2001F0D9F81C2001F034
:101FDC00F2F810E07B681B680A4A93420BD1084B5D
:101FEC00DB69074A43F00403D361054BDB6903F05B
:101FFC000403BB60BB6800BF1037BD4680BD00BF8B
:10200C00001002400008004080B588B000AF786036
:10201C0007F1100300221A605A609A60DA607B683C
:10202C001B68104A934218D10F4B9B690E4A43F020
:10203C00080393610C4B9B6903F00803FB60FB687E
:10204C004FF400733B6102237B610223FB6107F1B8
:10205C0010031946054801F0B7FC00BF2037BD46F8
:10206C0080BD00BF0008004000100240000C014081
:10207C0080B400AF00BFFDE780B400AF00BFFDE748
:10208C0080B400AF00BFFDE780B400AF00BFFDE738
:10209C0080B400AF00BFFDE780B400AF00BFBD4609
:1020AC0080BC704780B400AF00BFBD4680BC704799
:1020BC0080B400AF00BFBD4680BC704780B500AF98
:1020CC0000F0CAFA00BF80BD80B500AF024801F035
:1020DC0047F900BF80BD00BF4C01002080B586B021
:1020EC0000AF7860144A154BD31A7B617B693B6156
:1020FC00134B1B68002B02D1114B124A1A60104B68
:10210C001A687B6813443A699A4207D204F08EFC31
:10211C0003460C221A604FF0FF3309E0084B1B6892
:10212C00FB60074B1A687B681344054A1360FB6815
:10213C0018461837BD4680BD005000200004000032
:10214C008C0200201004002080B400AF00BFBD46FC
:10215C0080BC704780B582B000AF78600E4A7B6857
:10216C00136004220D490E48FFF713F90B4B1B6843
:10217C00B3F1FF3F03D1094B4FF416721A60074BB2
:10218C001B68084A1360054B1B68184600F0BEF923
:10219C0000BF0837BD4680BD9C0200209402002081
:1021AC0000F000089802002080B582B000AFFEF766
:1021BC004BFA0346FB71FB79012B48D1394B1B7849
:1021CC0083F00103DBB2002B1DD0374B1B7883F05F
:1021DC000103DBB2002B16D0344B1B7883F00103C8
:1021EC00DBB2002B0FD0324B1B68324A1360324BE0
:1021FC001B68184603F0B2FC2A4B01221A702F4BB5
:10220C0000221A7048E02C4B1B68184603F0F8FCAF
:10221C00244B00221A70244B1B78002B0CD0224B21
:10222C0000221A70224B1B68224A13600422204998
:10223C002348FFF76DF806E01C4B1B78002B02D0EF
:10224C001A4B00221A701D4B01221A7024E0FB79E4
:10225C00032B0DD1134B1B7883F00103DBB2002B46
:10226C0006D0124B01221A70144B03221A7013E081
:10227C00FB79022B10D10B4B1B7883F00103DBB2E3
:10228C00002B09D00A4B1B680A4A1360064B01222B
:10229C001A700A4B02221A70084B1B781846083722
:1022AC00BD4680BD900200209102002092020020C9
:1022BC0094020020980200209C020020380000208C
:1022CC0000F0000880B500AFFEF764FA0346002B5F
:1022DC0011D00A4B1B7883F00103DBB2002B0AD020
:1022EC00074B1B68184603F08BFC064B1B68064A11
:1022FC001360FEF757FC00BF80BD00BF90020020AA
:10230C009C020020980200209402002080B586B028
:10231C0000AF7860354A07F10C0307CA83E8070061
:10232C00FEF780FA0346002B1AD07B681B789B00C3
:10233C0018333B4453F80C2C2D4B1B6813444AF6B2
:10234C00C00293420CD87B681B789B0018333B442B
:10235C0053F80C2C264B1B681344254A136040E0A1
:10236C00FEF7A8FA0346002B17D07B681B789B005E
:10237C0018333B4453F80C2C1D4B1B689A420CD859
:10238C001B4B1A687B681B789B0018333B4453F833
:10239C000C3CD31A164A136023E0FEF7D3FA03461B
:1023AC00002B0CD07B681B78022B04D07B681B782D
:1023BC000133DAB200E000227B681A7011E0FEF7FC
:1023CC000BFB0346002B0CD07B681B78002B04D036
:1023DC007B681B78013BDAB200E002227B681A7042
:1023EC00FFE700BF1837BD4680BD00BF8C730008E7
:1023FC009402002080B584B000AFF860B9607A60B8
:10240C00FEF710FA0346002B28D0FB681B78002B34
:10241C0011D0BB681B785A1C354B83FB02139910E7
:10242C00D317C91A0B465B000B44DB00D11ACAB296
:10243C00BB681A7058E07B681B785A1C2D4B83FBC9
:10244C00021313445911D317C91A0B461B015B1AFB
:10245C009B00D11ACAB27B681A7045E0FEF72AFAC3
:10246C000346002B1DD0FB681B78002B0AD0BB68E1
:10247C001B78002B06D0BB681B78013BDAB2BB681B
:10248C001A7031E0FB681B78002B2DD17B681B7810
:10249C00002B29D07B681B78013BDAB27B681A7061
:1024AC0022E0FEF74FFA0346002B0CD0FB681B789A
:1024BC00012B04D0FB681B780133DAB200E0002258
:1024CC00FB681A7010E0FEF787FA0346002B0BD05E
:1024DC00FB681B78002B04D0FB681B78013BDAB23D
:1024EC0000E00122FB681A7000BF1037BD4680BDAA
:1024FC00ABAAAA2A8988888880B400AF024B1B68D3
:10250C001846BD4680BC70479402002080B483B04E
:10251C0000AF7860034A7B68136000BF0C37BD4680
:10252C0080BC70479402002080B500AF104B1B6834
:10253C00184603F08DFC0F4B1B68002B05D00D4B80
:10254C001B68013B0B4A136010E0094B1B681846D3
:10255C0003F056FB012140F6B830FEF79BFA064B10
:10256C0000221A70054B1B68024A136000BF80BD25
:10257C009C0200209402002090020020980200206F
:10258C00FFF7E2FD0B480C490C4A002302E0D4583B
:10259C00C4500433C4188C42F9D3094A094C0023A3
:1025AC0001E013600432A242FBD304F045FAFFF7BA
:1025BC0065F8704700000020940000201474000897
:1025CC009800002010040020FEE7000080B500AF4A
:1025DC00084B1B68074A43F010031360032000F0FC
:1025EC00C3FD0F2000F008F8FFF7FEFB0023184690
:1025FC0080BD00BF0020024080B582B000AF786083
:10260C00124B1A68124B1B7819464FF47A73B3FBB2
:10261C00F1F3B2FBF3F3184600F0DBFD0346002B9D
:10262C0001D001230EE07B680F2B0AD800227968B9
:10263C004FF0FF3000F0A3FD064A7B6813600023C7
:10264C0000E0012318460837BD4680BD3400002049
:10265C00400000203C00002080B400AF054B1B78EC
:10266C001A46054B1B681344034A136000BFBD4652
:10267C0080BC704740000020A002002080B400AF56
:10268C00024B1B681846BD4680BC7047A002002058
:10269C0080B584B000AF7860FFF7F0FFB8607B685E
:1026AC00FB60FB68B3F1FF3F05D00A4B1B781A4661
:1026BC00FB681344FB6000BFFFF7E0FF0246BB68FA
:1026CC00D31AFA689A42F7D800BF00BF1037BD463C
:1026DC0080BD00BF4000002080B586B000AF7860A0
:1026EC000023FB7500233B610023BB600023FB60D0
:1026FC007B68002B01D10123BEE07B689B68002B1B
:10270C007B689B6A002B09D17B680022DA627B68AC
:10271C00002283F824207868FFF798FB786800F093
:10272C0001FB0346FB757B689B6A03F01003002BCF
:10273C0040F09980FB7D002B40F095807B689B6A74
:10274C0023F4885323F0020343F002027B689A625D
:10275C007B685A687B68DB691A437B681B7B5B0070
:10276C001343BA681343BB607B689B68B3F5807FE7
:10277C0003D07B689B68012B02D14FF4807300E07F
:10278C0000233A6913433B617B681B7D012B19D1F4
:10279C007B681B7B002B09D17B689B69013B5A032F
:1027AC003B69134343F400633B610BE07B689B6A1A
:1027BC0043F020027B689A627B68DB6A43F001027B
:1027CC007B68DA627B681B685B6823F469417B6811
:1027DC001B683A690A435A607B681B689A68284BE5
:1027EC0013407A681268B9680B4393607B689B68E6
:1027FC00B3F5807F03D07B689B68012B04D17B6889
:10280C001B69013B1B05FB607B681B68DB6A23F4BF
:10281C0070017B681B68FA680A43DA627B681B6884
:10282C009A68184B1340BA689A420BD17B68002205
:10283C00DA627B689B6A23F0030343F001027B6836
:10284C009A6218E07B689B6A23F0120343F0100233
:10285C007B689A627B68DB6A43F001027B68DA6210
:10286C000123FB7507E07B689B6A43F010027B68D1
:10287C009A620123FB75FB7D18461837BD4680BD57
:10288C00FDF7E1FFFE0E1FFF80B586B000AFF860CC
:10289C00B9607A600023FB75FB681B68644A93423D
:1028AC0004D0FB681B68634A934206D1604B5B689B
:1028BC0003F47023002B40F0B380FB6893F82430B2
:1028CC00012B01D10223AEE0FB68012283F8242006
:1028DC00F86800F0CDF90346FB75FB7D002B40F04A
:1028EC009A80FB689B6A23F4706323F0010343F422
:1028FC008072FB689A62FB681B684E4A934205D152
:10290C004B4B5B6803F47023002B15D1FB689B6A5F
:10291C0023F48012FB689A62FB681B685B6803F403
:10292C008063002B26D0FB689B6A23F4405343F44E
:10293C008052FB689A621DE0FB689B6A43F480122C
:10294C00FB689A62FB681B68394A934204D0FB68A7
:10295C001B68384A93420DD1354B5B6803F4806396
:10296C00002B07D0FB689B6A23F4405343F480523E
:10297C00FB689A62FB689B6A03F48053002B06D0B9
:10298C00FB68DB6A23F00602FB68DA6202E0FB6894
:10299C000022DA62FB68002283F82420FB681B6AA1
:1029AC00254A9A62FB681B6A244ADA62FB681B6A36
:1029BC00234A1A63FB681B686FF002021A60FB68FB
:1029CC001B689A68FB681B6842F480729A60FB680B
:1029DC00186AFB681B684C331946BA687B6800F0B0
:1029EC005FFCFB681B689B6803F46023B3F5602FE6
:1029FC0008D1FB681B689A68FB681B6842F4A0024C
:102A0C009A600FE0FB681B689A68FB681B6842F4CD
:102A1C0080129A6006E0FB68002283F8242001E013
:102A2C000123FB75FB7D18461837BD4680BD00BFE2
:102A3C000024014000280140B32D00082F2E00086F
:102A4C004B2E000880B483B000AF786000BF0C3709
:102A5C00BD4680BC704780B483B000AF786000BFC7
:102A6C000C37BD4680BC704780B485B000AF786031
:102A7C0039600023FB730023BB607B6893F8243020
:102A8C00012B01D10223DCE07B68012283F8242096
:102A9C003B685B68062B1CD87B681B68596B3B68D2
:102AAC005A6813469B001344053B1F2202FA03F39A
:102ABC00DB4319403B6818683B685A6813469B0017
:102ACC001344053B00FA03F27B681B680A435A6304
:102ADC003CE03B685B680C2B1CD87B681B68196B53
:102AEC003B685A6813469B001344233B1F2202FA8F
:102AFC0003F3DB4319403B6818683B685A6813467C
:102B0C009B001344233B00FA03F27B681B680A43C7
:102B1C001A631BE07B681B68D96A3B685A681346CA
:102B2C009B001344413B1F2202FA03F3DB43194081
:102B3C003B6818683B685A6813469B001344413B3A
:102B4C0000FA03F27B681B680A43DA623B681B6875
:102B5C00092B1CD97B681B68D9683B681A6813461B
:102B6C005B0013441E3B072202FA03F3DB431940BC
:102B7C003B6898683B681A6813465B0013441E3B1D
:102B8C0000FA03F27B681B680A43DA6019E07B6881
:102B9C001B6819693B681A6813465B0013440722CB
:102BAC0002FA03F3DB4319403B6898683B681A68E8
:102BBC0013465B00134400FA03F27B681B680A435C
:102BCC001A613B681B68102B03D03B681B68112BE8
:102BDC0032D17B681B681D4A934225D17B681B68E8
:102BEC009B6803F40003002B26D17B681B689A6852
:102BFC007B681B6842F400029A603B681B68102BD0
:102C0C001AD1134B1B68134AA2FB03239A0C1346CD
:102C1C009B0013445B00BB6002E0BB68013BBB60E4
:102C2C00BB68002BF9D107E07B689B6A43F020025C
:102C3C007B689A620123FB737B68002283F8242053
:102C4C00FB7B18461437BD4680BC704700240140FE
:102C5C003400002083DE1B4380B483B000AF786067
:102C6C007B689B6A18460C37BD4680BC70470000D9
:102C7C0080B584B000AF78600023FB600023BB609C
:102C8C007B681B689B6803F00103012B40D07B68B9
:102C9C001B689A687B681B6842F001029A601F4BA4
:102CAC001B681F4AA2FB03239B0CBB6002E0BB68A2
:102CBC00013BBB60BB68002BF9D1FFF7DFFCF86070
:102CCC001FE0FFF7DBFC0246FB68D31A022B18D976
:102CDC007B681B689B6803F00103012B11D07B6898
:102CEC009B6A43F010027B689A627B68DB6A43F054
:102CFC0001027B68DA627B68002283F824200123BE
:102D0C0007E07B681B689B6803F00103012BD8D19B
:102D1C00002318461037BD4680BD00BF340000208C
:102D2C0083DE1B4380B584B000AF78600023FB606A
:102D3C007B681B689B6803F00103012B2ED17B6819
:102D4C001B689A687B681B6822F001029A60FFF787
:102D5C0095FCF8601BE0FFF791FC0246FB68D31A68
:102D6C00022B14D97B681B689B6803F00103012BB1
:102D7C000DD17B689B6A43F010027B689A627B687A
:102D8C00DB6A43F001027B68DA62012307E07B68AF
:102D9C001B689B6803F00103012BDCD00023184651
:102DAC001037BD4680BD80B584B000AF78607B68BD
:102DBC005B6AFB60FB689B6A03F05003002B27D116
:102DCC00FB689B6A43F40072FB689A62FB681B68A1
:102DDC009B6803F46023B3F5602F15D1FB681B7B54
:102DEC00002B11D1FB689B6A23F48072FB689A62FA
:102DFC00FB689B6A03F48053002B05D1FB689B6A2C
:102E0C0043F00102FB689A62F868FEF7BFFE04E02B
:102E1C00FB681B6A1B6B7868984700BF1037BD4670
:102E2C0080BD80B584B000AF78607B685B6AFB6066
:102E3C00F868FFF707FE00BF1037BD4680BD80B5B0
:102E4C0084B000AF78607B685B6AFB60FB689B6A50
:102E5C0043F04002FB689A62FB68DB6A43F00402B1
:102E6C00FB68DA62F868FFF7F6FD00BF1037BD4665
:102E7C0080BD000090B587B000AF78600023FB7573
:102E8C000023FB607B6893F82430012B01D10223D3
:102E9C0097E07B68012283F824207868FFF742FFD3
:102EAC000346FB757868FFF7E3FE0346FB75FB7D75
:102EBC00002B40F081807B689B6A23F4885323F0BD
:102ECC00020343F002027B689A62404B1C680220AA
:102EDC0002F03EFD0346B4FBF3F35B00FB6002E043
:102EEC00FB68013BFB60FB68002BF9D17B681B681E
:102EFC009A687B681B6842F008029A60FFF7BEFB79
:102F0C0038611BE0FFF7BAFB02463B69D31A0A2B68
:102F1C0014D97B681B689B6803F00803002B0DD049
:102F2C007B689B6A23F0120343F010027B689A6261
:102F3C007B68002283F82420012342E07B681B6815
:102F4C009B6803F00803002BDCD17B681B689A6834
:102F5C007B681B6842F004029A60FFF78FFB3861B4
:102F6C001BE0FFF78BFB02463B69D31A0A2B14D9E3
:102F7C007B681B689B6803F00403002B0DD07B68F7
:102F8C009B6A23F0120343F010027B689A627B6801
:102F9C00002283F82420012313E07B681B689B68C4
:102FAC0003F00403002BDCD17B689B6A23F0030342
:102FBC0043F001027B689A627B68002283F824202C
:102FCC00FB7D18461C37BD4690BD00BF3400002069
:102FDC0080B485B000AF78607B6803F00703FB60BA
:102FEC000C4BDB68BB60BA684FF6FF031340BB6049
:102FFC00FB681A02BB68134343F0BF6343F400330E
:10300C00BB60044ABB68D36000BF1437BD4680BCAC
:10301C00704700BF00ED00E080B400AF044BDB68EC
:10302C001B0A03F007031846BD4680BC704700BF5F
:10303C0000ED00E080B483B000AF0346FB7197F95C
:10304C000730002B0BDBFB7903F01F02064997F9C5
:10305C0007305B09012000FA02F241F8232000BF7F
:10306C000C37BD4680BC704700E100E080B483B0F3
:10307C0000AF03463960FB7197F90730002B0ADB70
:10308C003B68DAB20C4997F907301201D2B20B4403
:10309C0083F800230AE03B68DAB20849FB7903F0B5
:1030AC000F03043B1201D2B20B441A7600BF0C374B
:1030BC00BD4680BC704700BF00E100E000ED00E0C1
:1030CC0080B489B000AFF860B9607A60FB6803F037
:1030DC000703FB61FB69C3F10703042B28BF04231F
:1030EC00BB61FB690433062B02D9FB69033B00E08F
:1030FC0000237B614FF0FF32BB6902FA03F3DA4322
:10310C00BB681A407B699A404FF0FF317B6901FA2A
:10311C0003F3D9437B680B40134318462437BD4651
:10312C0080BC704780B582B000AF78607B68013B93
:10313C00B3F1807F01D301230FE00A4A7B68013B86
:10314C0053600F214FF0FF30FFF790FF054B00222B
:10315C009A60044B07221A60002318460837BD46B4
:10316C0080BD00BF10E000E080B582B000AF786099
:10317C007868FFF72DFF00BF0837BD4680BD80B5CE
:10318C0086B000AF0346B9607A60FB7300237B61A5
:10319C00FFF742FF78617A68B9687869FFF790FFAA
:1031AC00024697F90F3011461846FFF75FFF00BF34
:1031BC001837BD4680BD80B582B000AF0346FB71A9
:1031CC0097F907301846FFF735FF00BF0837BD46A3
:1031DC0080BD80B582B000AF78607868FFF7A2FF41
:1031EC00034618460837BD4680BD000080B485B044
:1031FC0000AF78600023FB607B68002B01D10123BA
:10320C0043E07B681B681A46224B1344224AA2FBFC
:10321C0003231B099A007B681A647B681F4ADA63D4
:10322C007B68022283F821207B681B681B68FB608B
:10323C00FB6823F47F5323F03003FB607B685A68F0
:10324C007B689B681A437B68DB681A437B681B6945
:10325C001A437B685B691A437B689B691A437B68DA
:10326C00DB691343FA681343FB607B681B68FA68DD
:10327C001A607B6800229A637B68012283F8212004
:10328C007B68002283F82020002318461437BD46A3
:10329C0080BC7047F8FFFDBFCDCCCCCC0000024009
:1032AC0080B586B000AFF860B9607A603B600023EF
:1032BC00FB75FB6893F82030012B01D102234BE006
:1032CC00FB68012283F82020FB6893F82130DBB2E5
:1032DC00012B3AD1FB68022283F82120FB680022E3
:1032EC009A63FB681B681A68FB681B6822F0010272
:1032FC001A603B687A68B968F86800F037F9FB68BF
:10330C00DB6A002B08D0FB681B681A68FB681B681B
:10331C0042F00E021A600FE0FB681B681A68FB682B
:10332C001B6822F004021A60FB681B681A68FB68B1
:10333C001B6842F00A021A60FB681B681A68FB687B
:10334C001B6842F001021A6005E0FB68002283F85A
:10335C0020200223FB75FB7D18461837BD4680BD27
:10336C0080B584B000AF78607B68DB6B1B68FB605A
:10337C007B681B681B68BB607B681B6C04229A40D3
:10338C00FB681340002B4FD0BB6803F00403002BE9
:10339C004AD07B681B681B6803F02003002B07D105
:1033AC007B681B681A687B681B6822F004021A6031
:1033BC007B681B68664A934229D07B681B68654A08
:1033CC00934222D07B681B68634A93421AD07B6875
:1033DC001B68624A934212D07B681B68604A934216
:1033EC000AD07B681B685F4A934202D14FF480037A
:1033FC000EE04FF080630BE04FF4802308E04FF4B5
:10340C00804305E04FF4806302E0402300E0042396
:10341C00554A53607B68DB6A002B00F094807B6814
:10342C00DB6A786898478EE07B681B6C02229A40B6
:10343C00FB681340002B56D0BB6803F00203002B33
:10344C0051D07B681B681B6803F02003002B0BD149
:10345C007B681B681A687B681B6822F00A021A607A
:10346C007B68012283F821207B681B68384A9342D1
:10347C0029D07B681B68374A934222D07B681B6833
:10348C00354A93421AD07B681B68344A934212D057
:10349C007B681B68324A93420AD07B681B68314AAE
:1034AC00934202D14FF400130EE04FF000730BE087
:1034BC004FF4003308E04FF4005305E04FF4007371
:1034CC0002E0202300E00223274A53607B6800229D
:1034DC0083F820207B689B6A002B34D07B689B6A26
:1034EC00786898472FE07B681B6C08229A40FB6831
:1034FC001340002B28D0BB6803F00803002B23D00B
:10350C007B681B681A687B681B6822F00E021A60C5
:10351C007B681A6C7B68DB6B012101FA02F25A6042
:10352C007B6801229A637B68012283F821207B68E7
:10353C00002283F820207B681B6B002B04D07B6857
:10354C001B6B7868984700BF00BF1037BD4680BD25
:10355C00080002401C0002403000024044000240BF
:10356C00580002406C0002400000024080B485B05C
:10357C0000AFF860B9607A603B60FB681A6CFB685E
:10358C00DB6B012101FA02F25A60FB681B683A6896
:10359C005A60FB685B68102B08D1FB681B687A6863
:1035AC009A60FB681B68BA68DA6007E0FB681B6806
:1035BC00BA689A60FB681B687A68DA6000BF1437D7
:1035CC00BD4680BC70470000F0B587B000AFF86016
:1035DC00B960C7E900230123FB750023BB750023E9
:1035EC007B752F4B1B7E012B01D1022354E02C4BFE
:1035FC0001221A764CF2503000F0A8F80346FB7505
:10360C00FB7D002B44D1FB68012B02D101237B7580
:10361C0007E0FB68022B02D102237B7501E0042337
:10362C007B750023BB752DE0BB7D5A00BB6802EB9C
:10363C00030CBB7D1901D7E90023C1F12006A1F1D0
:10364C00200022FA01F403FA06F6344323FA00F0C0
:10365C00044323FA01F5A3B21946604600F05AF868
:10366C004CF2503000F072F80346FB750D4B1B69A1
:10367C000C4A23F001031361FB7D002B07D1BB7DAA
:10368C000133BB75BA7D7B7D9A42CDD300E000BF80
:10369C00034B00221A76FB7D18461C37BD46F0BD45
:1036AC00A80200200020024080B483B000AF0023A9
:1036BC00FB710D4B1B6903F08003002B0DD00A4BE3
:1036CC000A4A5A60084B0A4A5A60074B1B6903F0B6
:1036DC008003002B01D00123FB71FB7918460C37BA
:1036EC00BD4680BC704700BF0020024023016745E7
:1036FC00AB89EFCD80B400AF054B1B69044A43F096
:10370C008003136100231846BD4680BC704700BF80
:10371C000020024080B483B000AF78600B467B8001
:10372C00084B0022DA61084B1B69074A43F001037E
:10373C0013617B687A881A8000BF0C37BD4680BC49
:10374C00704700BFA80200200020024080B584B062
:10375C0000AF7860FEF792FFF86010E07B68B3F181
:10376C00FF3F0CD07B68002B07D0FEF787FF02468B
:10377C00FB68D31A7A689A4201D2032325E0154BD1
:10378C00DB6803F00103002BE8D1124BDB6803F07C
:10379C002003002B02D00F4B2022DA600D4BDB688C
:1037AC0003F01003002B0BD10A4BDB6903F0010370
:1037BC00002B05D1074BDB6803F00403002B03D06F
:1037CC0000F00AF8012300E0002318461037BD462C
:1037DC0080BD00BF0020024080B483B000AF002346
:1037EC007B60234BDB6803F01003002B09D0214BCB
:1037FC00DB6943F002031F4AD3617B6843F010037B
:10380C007B601B4BDB6803F00403002B09D0194BC6
:10381C00DB6943F00103174AD3617B6843F004036F
:10382C007B60134BDB6903F00103002B0BD0114BB6
:10383C00DB6943F004030F4AD3610D4BDB690C4A7F
:10384C0023F00103D3617B6840F20112934206D14D
:10385C00074BDB69064A23F00103D36102E0044AFB
:10386C007B68D36000BF0C37BD4680BC704700BF7F
:10387C0000200240A802002080B584B000AF786020
:10388C0039600123FB730023BB602F4B1B7E012B84
:10389C0001D1022353E02C4B01221A767B681B6862
:1038AC00022B16D14CF25030FFF750FF0346002B81
:1038BC0041D1012000F04CF84CF25030FFF746FF9C
:1038CC000346FB73214B1B69204A23F0040313614D
:1038DC0031E04CF25030FFF739FF0346002B2AD170
:1038EC003B684FF0FF321A607B689B68BB6019E045
:1038FC00B86800F049F84CF25030FFF727FF034648
:10390C00FB73124B1B69114A23F002031361FB7BFF
:10391C00002B03D03B68BA681A600CE0BB6803F557
:10392C008063BB607B68DB689A027B689B6813448E
:10393C00BA689A42DCD3044B00221A76FB7B1846F9
:10394C001037BD4680BD00BFA802002000200240F9
:10395C0080B483B000AF7860094B0022DA61094B68
:10396C001B69084A43F004031361064B1B69054AA3
:10397C0043F04003136100BF0C37BD4680BC704759
:10398C00A80200200020024080B483B000AF786011
:10399C000B4B0022DA610B4B1B690A4A43F0020302
:1039AC001361084A7B685361064B1B69054A43F057
:1039BC004003136100BF0C37BD4680BC704700BF8D
:1039CC00A80200200020024080B48BB000AF7860C9
:1039DC00396000237B6200233B6269E101227B6A30
:1039EC0002FA03F3FB613B681B68FA691340BB6185
:1039FC00BA69FB699A4240F058813B685B689A4A05
:103A0C0093425ED0984A934275D8984A934258D0C4
:103A1C00964A93426FD8964A934252D0944A934214
:103A2C0069D8944A93424CD0924A934263D8924AB2
:103A3C00934246D0904A93425DD8122B2AD8122B2F
:103A4C0059D801A252F823F0CF3A0008A93A00083D
:103A5C00BB3A0008FD3A0008033B0008033B000892
:103A6C00033B0008033B0008033B0008033B000832
:103A7C00033B0008033B0008033B0008033B000822
:103A8C00033B0008033B0008033B0008B13A000865
:103A9C00C53A0008794A934213D02CE03B68DB68A6
:103AAC003B6229E03B68DB6804333B6224E03B6803
:103ABC00DB6808333B621FE03B68DB680C333B621E
:103ACC001AE03B689B68002B02D104233B6213E095
:103ADC003B689B68012B05D108233B627B68FA6924
:103AEC001A6109E008233B627B68FA695A6103E0BA
:103AFC0000233B6200E000BFBB69FF2B01D87B6851
:103B0C0001E07B6804337B61BB69FF2B02D87B6AC5
:103B1C009B0002E07B6A083B9B003B617B691A6857
:103B2C000F213B6901FA03F3DB431A40396A3B6905
:103B3C0001FA03F31A437B691A603B685B6803F074
:103B4C008053002B00F0B1804D4B9B694C4A43F0E5
:103B5C00010393614A4B9B6903F00103BB60BB6893
:103B6C00484A7B6A9B08023352F82330FB607B6A1D
:103B7C0003F003039B000F2202FA03F3DB43FA6802
:103B8C001340FB607B68404A934213D07B683F4AEA
:103B9C0093420DD07B683E4A934207D07B683D4AE6
:103BAC00934201D1032306E0042304E0022302E044
:103BBC00012300E000237A6A02F003029200934092
:103BCC00FA681343FB602F497B6A9B080233FA683F
:103BDC0041F823203B685B6803F48013002B06D06C
:103BEC002D4B9A682C49BB6913438B6006E02A4B1A
:103BFC009A68BB69DB43284913408B603B685B6860
:103C0C0003F40013002B06D0234BDA682249BB695E
:103C1C001343CB6006E0204BDA68BB69DB431E49DB
:103C2C001340CB603B685B6803F40033002B06D079
:103C3C00194B5A681849BB6913434B6006E0164B85
:103C4C005A68BB69DB43144913404B603B685B68A3
:103C5C0003F48033002B21D00F4B1A680E49BB693B
:103C6C0013430B6021E000BF000032100000311044
:103C7C000000221000002110000012100000111092
:103C8C00001002400000014000080140000C0140FF
:103C9C000010014000140140000401400B4B1A6855
:103CAC00BB69DB43094913400B607B6A01337B62C0
:103CBC003B681A687B6A22FA03F3002B7FF48EAE02
:103CCC0000BF00BF2C37BD4680BC704700040140CC
:103CDC0080B485B000AF78600B467B807B689A68B7
:103CEC007B881340002B02D00123FB7301E00023DF
:103CFC00FB73FB7B18461437BD4680BC7047000035
:103D0C0080B584B000AF78607B68002B01D10123B3
:103D1C002BE17B6893F83D30DBB2002B06D17B683E
:103D2C00002283F83C207868FEF7F8F87B682422A0
:103D3C0083F83D207B681B681A687B681B6822F03F
:103D4C0001021A607B681B681A687B681B6842F466
:103D5C0000421A607B681B681A687B681B6822F437
:103D6C0000421A6001F0F8FCF8607B685B68814ADD
:103D7C00934207D8FB68804A934294BF01230023E7
:103D8C00DBB206E0FB687D4A934294BF012300231B
:103D9C00DBB2002B01D00123E7E0FB68784AA2FBE1
:103DAC0003239B0CBB607B681B685B6823F03F01A3
:103DBC007B681B68BA680A435A607B681B681B6A7D
:103DCC0023F03F017B685B686A4A934202D8BB6868
:103DDC00013309E0BB684FF4967202FB03F3694AA6
:103DEC00A2FB03239B0901337A6812680B4313620D
:103DFC007B681B68DB6923F44F4222F0FF027B686F
:103E0C005B685C498B4219D8FB68591E7B685B6800
:103E1C005B00B1FBF3F3591C40F6FC730B40002B19
:103E2C000AD0FB68591E7B685B685B00B1FBF3F33F
:103E3C000133C3F30B0351E004234FE07B689B6811
:103E4C00002B11D1FB68581E7B6859680B465B0030
:103E5C000B44B0FBF3F30133C3F30B03002B0CBF88
:103E6C0001230023DBB212E0FB68581E7B68596803
:103E7C000B469B000B4499000B44B0FBF3F301334E
:103E8C00C3F30B03002B0CBF01230023DBB2002B6D
:103E9C0001D0012322E07B689B68002B0ED1FB68CC
:103EAC00581E7B6859680B465B000B44B0FBF3F360
:103EBC000133C3F30B0343F400430FE0FB68581EBC
:103ECC007B6859680B469B000B4499000B44B0FB74
:103EDC00F3F30133C3F30B0343F4404379680968EC
:103EEC001343CB617B681B681B6823F0C0017B68A4
:103EFC00DA697B681B6A1A437B681B680A431A6081
:103F0C007B681B689B6823F4034323F0FF037A68E8
:103F1C0011697A68D26811437A6812680B4393600E
:103F2C007B681B68DB6823F0FF017B685A697B6840
:103F3C009B691A437B681B680A43DA607B681B68C1
:103F4C001A687B681B6842F001021A607B680022C9
:103F5C001A647B68202283F83D207B6800221A6358
:103F6C007B68002283F83E20002318461037BD469C
:103F7C0080BD00BFA08601007F841E00FF083D00AD
:103F8C0083DE1B43D34D621080B588B002AFF8605E
:103F9C007A601A460B467B8113463B81FEF76EFB1B
:103FAC007861FB6893F83D30DBB2202B40F0E08069
:103FBC007B690093192301227049F86800F0CCFD4D
:103FCC000346002B01D00223D3E0FB6893F83C306E
:103FDC00012B01D10223CCE0FB68012283F83C20A9
:103FEC00FB681B681B6803F00103012B07D0FB68FF
:103FFC001B681A68FB681B6842F001021A60FB68B8
:10400C001B681A68FB681B6822F400621A60FB6864
:10401C00212283F83D20FB68102283F83E20FB68A8
:10402C0000221A64FB687A685A62FB683A895A85DE
:10403C00FB685B8D9AB2FB681A85FB68504ADA62A2
:10404C0079897B693A6AF86800F036FC0346002BE4
:10405C0001D001238DE000233B61FB681B685B6989
:10406C003B61FB681B689B693B613B6966E07A6955
:10407C00396AF86800F08AFE0346002B0DD0FB6805
:10408C001B6C042B07D1FB681B681A68FB681B6848
:10409C0042F400721A6001236BE0FB685B6A1A78C9
:1040AC00FB681B681A61FB685B6A5A1CFB685A62E6
:1040BC00FB685B8D9BB2013B9AB2FB685A85FB682F
:1040CC001B8D013B9AB2FB681A85FB681B685B6908
:1040DC0003F00403042B1BD1FB681B8D002B17D0A2
:1040EC00FB685B6A1A78FB681B681A61FB685B6A81
:1040FC005A1CFB685A62FB685B8D9BB2013B9AB2FF
:10410C00FB685A85FB681B8D013B9AB2FB681A85CC
:10411C007A69396AF86800F081FE0346002B0DD0ED
:10412C00FB681B6C042B07D1FB681B681A68FB68C7
:10413C001B6842F400721A6001231AE0FB681B8DA5
:10414C00002B94D1FB681B681A68FB681B6842F44F
:10415C0000721A60FB68202283F83D20FB68002265
:10416C0083F83E20FB68002283F83C20002300E00B
:10417C00022318461837BD4680BD00BF0200100050
:10418C000000FFFF80B58CB002AFF8607A601A4671
:10419C000B467B8113463B8100233B62FEF76EFA94
:1041AC007862FB6893F83D30DBB2202B40F04B82F9
:1041BC007B6A0093192301227F49F86800F0CCFC3C
:1041CC000346002B01D002233EE2FB6893F83C30FF
:1041DC00012B01D1022337E2FB68012283F83C203A
:1041EC00FB681B681B6803F00103012B07D0FB68FD
:1041FC001B681A68FB681B6842F001021A60FB68B6
:10420C001B681A68FB681B6822F400621A60FB6862
:10421C00222283F83D20FB68102283F83E20FB68A5
:10422C0000221A64FB687A685A62FB683A895A85DC
:10423C00FB685B8D9AB2FB681A85FB685F4ADA6291
:10424C0079897B6A3A6BF86800F0B8FB0346002B5F
:10425C0001D00123F8E1FB681B8D002B13D1002347
:10426C00FB61FB681B685B69FB61FB681B689B69F6
:10427C00FB61FB69FB681B681A68FB681B6842F4EE
:10428C0000721A60CCE1FB681B8D012B1ED1FB6800
:10429C001B681A68FB681B6822F480621A6072B68D
:1042AC0000BF0023BB61FB681B685B69BB61FB68DB
:1042BC001B689B69BB61BB69FB681B681A68FB6860
:1042CC001B6842F400721A6062B635E0FB681B8D05
:1042DC00022B1ED1FB681B681A68FB681B6842F432
:1042EC0000621A6072B600BF00237B61FB681B681A
:1042FC005B697B61FB681B689B697B617B69FB6805
:10430C001B681A68FB681B6822F480621A6062B62C
:10431C0012E0FB681B681A68FB681B6842F4806239
:10432C001A6000233B61FB681B685B693B61FB689F
:10433C001B689B693B613B6972E1FB681B8D032B1E
:10434C0000F21F81FB681B8D012B23D17A6A396B1C
:10435C00F86800F0ABFD0346002B01D0012373E19C
:10436C00FB681B681A69FB685B6AD2B21A70FB683F
:10437C005B6A5A1CFB685A62FB681B8D013B9AB244
:10438C00FB681A85FB685B8D9BB2013B9AB2FB689C
:10439C005A8545E1FB681B8D022B52D17B6A009339
:1043AC003B6B00220649F86800F0D6FB0346002B55
:1043BC0008D0012348E100BF020010000000FFFFFD
:1043CC000400010072B600BFFB681B681A68FB682A
:1043DC001B6842F400721A60FB681B681A69FB6860
:1043EC005B6AD2B21A70FB685B6A5A1CFB685A6231
:1043FC00FB681B8D013B9AB2FB681A85FB685B8DD1
:10440C009BB2013B9AB2FB685A8562B600BFFB684F
:10441C001B681A69FB685B6AD2B21A70FB685B6A2C
:10442C005A1CFB685A62FB681B8D013B9AB2FB68F5
:10443C001A85FB685B8D9BB2013B9AB2FB685A856F
:10444C00EEE07B6A00933B6B00228149F86800F038
:10445C0083FB0346002B01D00123F5E0FB681B68AE
:10446C001A68FB681B6822F480621A6072B600BF7F
:10447C00FB681B681A69FB685B6AD2B21A70FB682E
:10448C005B6A5A1CFB685A62FB681B8D013B9AB233
:10449C00FB681A85FB685B8D9BB2013B9AB2FB688B
:1044AC005A856C4B1B68DB086B4AA2FB03231A0A68
:1044BC0013469B001344DA00D31A3B623B6A013B60
:1044CC003B623B6A002B18D1FB6800221A63FB6825
:1044DC00202283F83D20FB68002283F83E20FB68F5
:1044EC001B6C43F02002FB681A6462B600BFFB68C9
:1044FC00002283F83C200123A6E0FB681B685B6963
:10450C0003F00403042BD9D1FB681B681A68FB6801
:10451C001B6842F400721A60FB681B681A69FB681E
:10452C005B6AD2B21A70FB685B6A5A1CFB685A62EF
:10453C00FB681B8D013B9AB2FB681A85FB685B8D8F
:10454C009BB2013B9AB2FB685A8562B600BFFB680E
:10455C001B681A69FB685B6AD2B21A70FB685B6AEB
:10456C005A1CFB685A62FB681B8D013B9AB2FB68B4
:10457C001A85FB685B8D9BB2013B9AB2FB685A852E
:10458C004EE07A6A396BF86800F090FC0346002B19
:10459C0001D0012358E0FB681B681A69FB685B6A51
:1045AC00D2B21A70FB685B6A5A1CFB685A62FB68D1
:1045BC001B8D013B9AB2FB681A85FB685B8D9BB225
:1045CC00013B9AB2FB685A85FB681B685B6903F078
:1045DC000403042B24D1FB681B8D032B07D1FB6830
:1045EC001B681A68FB681B6822F480621A60FB68FF
:1045FC001B681A69FB685B6AD2B21A70FB685B6A4B
:10460C005A1CFB685A62FB681B8D013B9AB2FB6813
:10461C001A85FB685B8D9BB2013B9AB2FB685A858D
:10462C00FB681B8D002B7FF488AEFB68202283F87F
:10463C003D20FB68002283F83E20FB68002283F8B3
:10464C003C20002300E0022318462837BD4680BDDD
:10465C00040001003400002089B5F81480B58AB03C
:10466C0002AFF8607A603B600B467B81FEF706F880
:10467C00F8610023BB61FB6893F83D30DBB2202B63
:10468C0040F01181FB690093192301228849F868D5
:10469C0000F062FA0346002B01D0022304E1FB6810
:1046AC0093F83C30012B01D10223FDE0FB68012281
:1046BC0083F83C20FB681B681B6803F00103012B8B
:1046CC0007D0FB681B681A68FB681B6842F0010284
:1046DC001A60FB681B681A68FB681B6822F400628E
:1046EC001A60FB68242283F83D20FB6800221A64C0
:1046FC00FB68704ADA62FB681B681A68FB681B6807
:10470C0042F480721A60FB6900933B6800224FF000
:10471C000111F86800F020FA0346002B0DD0FB685D
:10472C001B681B6803F48073B3F5807F03D1FB68AF
:10473C004FF400721A640323B6E07B89DBB21A468D
:10474C00FB681B6802F0FE021A61FDF797FFF86127
:10475C00FB681B685B6903F00203022B0CBF01238F
:10476C000023DBB2FB75FB681B685B6903F4806399
:10477C00B3F5806F0CBF01230023DBB2BB7525E0C2
:10478C00FDF77CFF0246FB69D31A3A689A4202D3C2
:10479C003B68002B03D1FB68A02283F83D20FB680B
:1047AC001B685B6903F00203022B0CBF012300237F
:1047BC00DBB2FB75FB681B685B6903F48063B3F5C4
:1047CC00806F0CBF01230023DBB2BB75FB6893F831
:1047DC003D30DBB2A02B05D0FB7D002B02D1BB7D85
:1047EC00002BCDD0FB68202283F83D20FB681B6892
:1047FC005B6903F00203022B29D1FB681B681A6862
:10480C00FB681B6842F400721A6000233B61FB6872
:10481C001B685B693B61FB681B689B693B613B697F
:10482C00FB690093192301222149F86800F094F9DF
:10483C000346002B01D0012336E0FB68202283F8CD
:10484C003D20FB68002283F83C2000232CE0FB6811
:10485C001B681A68FB681B6842F400721A60FB68DC
:10486C001B686FF480625A61FB6900931923012263
:10487C000F49F86800F070F90346002B01D00123B2
:10488C0012E0BB690133BB61BA697B689A42FFF4E1
:10489C0032AFFB68202283F83D20FB68002283F8AE
:1048AC003C20012300E0022318462037BD4680BD82
:1048BC00020010000000FFFF80B588B002AFF86066
:1048CC007A603B600B467B81FB68DB6A7B617B69B2
:1048DC00082B06D07B69012B03D07B6913F5803F35
:1048EC0008D1FB681B681A68FB681B6842F480726D
:1048FC001A600BE0FB681B6B122B07D1FB681B6863
:10490C001A68FB681B6842F480721A603B6800935B
:10491C007B6800224FF00111F86800F01DF9034686
:10492C00002B0DD0FB681B681B6803F48073B3F578
:10493C00807F03D1FB684FF400721A64032335E0C7
:10494C00FB681B69B3F5804F08D17B89DBB21A4633
:10495C00FB681B6802F0FE021A611BE07B89DB110D
:10496C00DBB203F00603DBB263F00F03DAB2FB68D1
:10497C001B681A613B687A680E49F86800F066F9A2
:10498C000346002B01D0012310E07B89DAB2FB68CF
:10499C001B681A613B687A680749F86800F056F999
:1049AC000346002B01D0012300E0002318461837E2
:1049BC00BD4680BD080001000200010080B588B032
:1049CC0002AFF8607A603B600B467B81FB68DB6A68
:1049DC007B61FB681B681A68FB681B6842F4806289
:1049EC001A607B69082B06D07B69012B03D07B698D
:1049FC0013F5803F08D1FB681B681A68FB681B68BD
:104A0C0042F480721A600BE0FB681B6B112B07D110
:104A1C00FB681B681A68FB681B6842F480721A609A
:104A2C003B6800937B6800224FF00111F86800F09E
:104A3C0093F80346002B0DD0FB681B681B6803F42E
:104A4C008073B3F5807F03D1FB684FF400721A6456
:104A5C00032379E0FB681B69B3F5804F08D17B8990
:104A6C00DBB243F00103DAB2FB681B681A615FE04A
:104A7C007B89DB11DBB203F00603DBB263F00F03BF
:104A8C00DAB2FB681B681A613B687A683049F868CF
:104A9C0000F0DCF80346002B01D0012354E07B89A5
:104AAC00DAB2FB681B681A613B687A682949F868B6
:104ABC0000F0CCF80346002B01D0012344E0002386
:104ACC003B61FB681B685B693B61FB681B689B690E
:104ADC003B613B69FB681B681A68FB681B6842F406
:104AEC0080721A603B6800937B6800224FF00111C2
:104AFC00F86800F031F80346002B0DD0FB681B68FA
:104B0C001B6803F48073B3F5807F03D1FB684FF40B
:104B1C0000721A64032317E07B89DB11DBB203F00C
:104B2C000603DBB263F00E03DAB2FB681B681A6192
:104B3C003B687A680749F86800F088F80346002B50
:104B4C0001D0012300E0002318461837BD4680BD74
:104B5C00080001000200010080B584B000AFF860CD
:104B6C00B9603B601346FB7148E03B68B3F1FF3F13
:104B7C0044D0FDF783FD0246BB69D31A3A689A42CA
:104B8C0002D33B68002B39D1BB681B0CDBB2012B69
:104B9C000DD1FB681B685B69DA43BB6813409BB2A1
:104BAC00002B0CBF01230023DBB21A460CE0FB6880
:104BBC001B689B69DA43BB6813409BB2002B0CBF8C
:104BCC0001230023DBB21A46FB799A4216D1FB680B
:104BDC0000221A63FB68202283F83D20FB68002228
:104BEC0083F83E20FB681B6C43F02002FB681A64C0
:104BFC00FB68002283F83C20012323E0BB681B0CDC
:104C0C00DBB2012B0DD1FB681B685B69DA43BB6817
:104C1C0013409BB2002B0CBF01230023DBB21A46BE
:104C2C000CE0FB681B689B69DA43BB6813409BB2C2
:104C3C00002B0CBF01230023DBB21A46FB799A42EE
:104C4C0093D0002318461037BD4680BD80B584B084
:104C5C0000AFF860B9607A603B6071E0FB681B687C
:104C6C005B6903F48063B3F5806F23D1FB681B6829
:104C7C001A68FB681B6842F400721A60FB681B68B8
:104C8C006FF480625A61FB6800221A63FB68202271
:104C9C0083F83D20FB68002283F83E20FB681B6CE8
:104CAC0043F00402FB681A64FB68002283F83C2082
:104CBC00012367E07B68B3F1FF3F41D0FDF7DEFCD9
:104CCC0002463B68D31A7A689A4202D37B68002B5F
:104CDC0036D1BB681B0CDBB2012B0CD1FB681B68FB
:104CEC005B69DA43BB6813409BB2002B14BF0123F2
:104CFC000023DBB20BE0FB681B689B69DA43BB68E3
:104D0C0013409BB2002B14BF01230023DBB2002BFA
:104D1C0016D0FB6800221A63FB68202283F83D2022
:104D2C00FB68002283F83E20FB681B6C43F02002DA
:104D3C00FB681A64FB68002283F83C20012321E005
:104D4C00BB681B0CDBB2012B0CD1FB681B685B69CD
:104D5C00DA43BB6813409BB2002B14BF0123002322
:104D6C00DBB20BE0FB681B689B69DA43BB68134042
:104D7C009BB2002B14BF01230023DBB2002B7FF46A
:104D8C006DAF002318461037BD4680BD80B584B08A
:104D9C0000AFF860B9607A6034E0F86800F0E3F8CE
:104DAC000346002B01D0012334E0BB68B3F1FF3F75
:104DBC0028D0FDF763FC02467B68D31ABA689A4286
:104DCC0002D3BB68002B1DD1FB681B685B6903F029
:104DDC008003802B16D0FB6800221A63FB6820220C
:104DEC0083F83D20FB68002283F83E20FB681B6C97
:104DFC0043F02002FB681A64FB68002283F83C2015
:104E0C00012307E0FB681B685B6903F08003802BC0
:104E1C00C3D1002318461037BD4680BD80B584B081
:104E2C0000AFF860B9607A6034E0F86800F09BF885
:104E3C000346002B01D0012334E0BB68B3F1FF3FE4
:104E4C0028D0FDF71BFC02467B68D31ABA689A423D
:104E5C0002D3BB68002B1DD1FB681B685B6903F098
:104E6C000403042B16D0FB6800221A63FB68202273
:104E7C0083F83D20FB68002283F83E20FB681B6C06
:104E8C0043F02002FB681A64FB68002283F83C2084
:104E9C00012307E0FB681B685B6903F00403042B28
:104EAC00C3D1002318461037BD4680BD80B584B0F1
:104EBC0000AFF860B9607A6049E0FB681B685B6919
:104ECC0003F01003102B19D1FB681B686FF0100254
:104EDC005A61FB6800221A63FB68202283F83D208C
:104EEC00FB68002283F83E20FB681A6CFB681A648E
:104EFC00FB68002283F83C20012330E0FDF7BEFB69
:104F0C0002467B68D31ABA689A4202D3BB68002B5C
:104F1C001DD1FB681B685B6903F04003402B16D066
:104F2C00FB6800221A63FB68202283F83D20FB6893
:104F3C00002283F83E20FB681B6C43F02002FB68C8
:104F4C001A64FB68002283F83C20012307E0FB680D
:104F5C001B685B6903F04003402BAED1002318465D
:104F6C001037BD4680BD80B483B000AF78607B68DD
:104F7C001B685B6903F48063B3F5806F1BD17B689E
:104F8C001B686FF480625A617B6800221A637B682D
:104F9C00202283F83D207B68002283F83E207B682A
:104FAC001B6C43F004027B681A647B68002283F854
:104FBC003C20012300E0002318460C37BD4680BC82
:104FCC007047000080B586B000AF78607B68002B1E
:104FDC0001D1012372E27B681B6803F00103002BF3
:104FEC0000F08780924B5B6803F00C03042B0CD011
:104FFC008F4B5B6803F00C03082B12D18C4B5B6856
:10500C0003F48033B3F5803F0BD1894B1B6803F459
:10501C000033002B6CD07B685B68002B68D10123BC
:10502C004CE27B685B68B3F5803F06D1804B1B6814
:10503C007F4A43F4803313602EE07B685B68002B5F
:10504C000CD17B4B1B687A4A23F480331360784B6A
:10505C001B68774A23F4802313601DE07B685B6830
:10506C00B3F5A02F0CD1724B1B68714A43F480230B
:10507C0013606F4B1B686E4A43F4803313600BE074
:10508C006B4B1B686A4A23F480331360684B1B68B4
:10509C00674A23F4802313607B685B68002B13D072
:1050AC00FDF7ECFA386108E0FDF7E8FA02463B69D7
:1050BC00D31A642B01D9032300E25D4B1B6803F464
:1050CC000033002BF0D014E0FDF7D8FA386108E07B
:1050DC00FDF7D4FA02463B69D31A642B01D903239A
:1050EC00ECE1534B1B6803F40033002BF0D100E0D0
:1050FC0000BF7B681B6803F00203002B63D04C4B92
:10510C005B6803F00C03002B0BD0494B5B6803F07E
:10511C000C03082B1CD1464B5B6803F48033002B2B
:10512C0016D1434B1B6803F00203002B05D07B68A0
:10513C001B69012B01D00123C0E13D4B1B6823F0FF
:10514C00F8027B685B69DB00394913430B603AE07A
:10515C007B681B69002B20D0364B01221A60FDF7AF
:10516C008DFA386108E0FDF789FA02463B69D31ADB
:10517C00022B01D90323A1E12D4B1B6803F0020381
:10518C00002BF0D02A4B1B6823F0F8027B685B697C
:10519C00DB00274913430B6015E0264B00221A60F5
:1051AC00FDF76CFA386108E0FDF768FA02463B69D6
:1051BC00D31A022B01D9032380E11D4B1B6803F08A
:1051CC000203002BF0D17B681B6803F00803002B53
:1051DC003AD07B689B69002B19D0174B01221A60BF
:1051EC00FDF74CFA386108E0FDF748FA02463B69D6
:1051FC00D31A022B01D9032360E10D4B5B6A03F038
:10520C000203002BF0D0012000F0CEFA1CE00A4B78
:10521C0000221A60FDF732FA38610FE0FDF72EFA22
:10522C0002463B69D31A022B08D9032346E100BF7F
:10523C00001002400000424280044242924B5B6AE2
:10524C0003F00203002BE9D17B681B6803F0040315
:10525C00002B00F0A6800023FB758B4BDB6903F061
:10526C008053002B0DD1884BDB69874A43F0805368
:10527C00D361854BDB6903F08053BB60BB680123B2
:10528C00FB75824B1B6803F48073002B18D17F4B8A
:10529C001B687E4A43F480731360FDF7EFF93861A5
:1052AC0008E0FDF7EBF902463B69D31A642B01D9F0
:1052BC00032303E1754B1B6803F48073002BF0D0C0
:1052CC007B68DB68012B06D16F4B1B6A6E4A43F07F
:1052DC00010313622DE07B68DB68002B0CD16A4B59
:1052EC001B6A694A23F001031362674B1B6A664A07
:1052FC0023F0040313621CE07B68DB68052B0CD1E4
:10530C00614B1B6A604A43F0040313625E4B1B6AD9
:10531C005D4A43F0010313620BE05B4B1B6A5A4A74
:10532C0023F001031362584B1B6A574A23F0040302
:10533C0013627B68DB68002B15D0FDF79FF9386191
:10534C000AE0FDF79BF902463B69D31A41F2883219
:10535C00934201D90323B1E04B4B1B6A03F00203C8
:10536C00002BEED014E0FDF789F938610AE0FDF767
:10537C0085F902463B69D31A41F28832934201D92E
:10538C0003239BE0404B1B6A03F00203002BEED17E
:10539C00FB7D012B05D13C4BDB693B4A23F0805351
:1053AC00D3617B68DB69002B00F08780364B5B6830
:1053BC0003F00C03082B61D07B68DB69022B46D110
:1053CC00334B00221A60FDF759F9386108E0FDF7FC
:1053DC0055F902463B69D31A022B01D903236DE020
:1053EC00294B1B6803F00073002BF0D17B681B6A00
:1053FC00B3F5803F08D1244B5B6823F400327B6803
:10540C009B68214913434B601F4B5B6823F4741258
:10541C007B68196A7B685B6A0B431B4913434B60BF
:10542C001B4B01221A60FDF729F9386108E0FDF7E2
:10543C0025F902463B69D31A022B01D903233DE01F
:10544C00114B1B6803F00073002BF0D035E0104BB0
:10545C0000221A60FDF712F9386108E0FDF70EF929
:10546C0002463B69D31A022B01D9032326E0064BD3
:10547C001B6803F00073002BF0D11EE07B68DB6926
:10548C00012B07D1012319E00010024000700040ED
:10549C00600042420B4B5B68FB60FB6803F480329C
:1054AC007B681B6A9A4206D1FB6803F470127B6816
:1054BC005B6A9A4201D0012300E00023184618379A
:1054CC00BD4680BD0010024080B584B000AF78604E
:1054DC0039607B68002B01D10123D0E06A4B1B683B
:1054EC0003F007033A689A4210D9674B1B6823F004
:1054FC00070265493B6813430B60634B1B6803F061
:10550C0007033A689A4201D00123B8E07B681B6814
:10551C0003F00203002B20D07B681B6803F004030C
:10552C00002B05D0594B5B68584A43F4E063536039
:10553C007B681B6803F00803002B05D0534B5B689A
:10554C00524A43F460535360504B5B6823F0F002B3
:10555C007B689B684D4913434B607B681B6803F069
:10556C000103002B40D07B685B68012B07D1474BB4
:10557C001B6803F40033002B15D101237FE07B68FB
:10558C005B68022B07D1414B1B6803F00073002BA7
:10559C0009D1012373E03D4B1B6803F00203002B80
:1055AC0001D101236BE0394B5B6823F003027B686C
:1055BC005B68364913434B60FDF760F8F8600AE00E
:1055CC00FDF75CF80246FB68D31A41F2883293422D
:1055DC0001D9032353E02D4B5B6803F00C027B686D
:1055EC005B689B009A42EBD1274B1B6803F00703C7
:1055FC003A689A4210D2244B1B6823F007022249C6
:10560C003B6813430B60204B1B6803F007033A689D
:10561C009A4201D0012332E07B681B6803F004033B
:10562C00002B08D0194B5B6823F4E0627B68DB68C5
:10563C00164913434B607B681B6803F00803002B6F
:10564C0009D0124B5B6823F460527B681B69DB004A
:10565C000E4913434B6000F021F802460B4B5B687C
:10566C001B0903F00F030A49CB5C22FA03F3094A26
:10567C001360094B1B681846FCF7BEFF0023184645
:10568C001037BD4680BD00BF002002400010024014
:10569C0098730008340000203C00002080B487B0D0
:1056AC0000AF0023FB600023BB6000237B61002361
:1056BC007B6000233B611E4B5B68FB60FB6803F067
:1056CC000C03042B02D0082B03D027E0194B3B61B1
:1056DC0027E0FB689B0C03F00F03174AD35C7B603D
:1056EC00FB6803F48033002B10D0114B5B685B0C10
:1056FC0003F00103114AD35CBB607B680D4A03FBCA
:10570C0002F2BB68B2FBF3F37B6104E07B680C4AEA
:10571C0002FB03F37B617B693B6102E0054B3B6160
:10572C0000BF3B6918461C37BD4680BC704700BFA4
:10573C000010024000127A00B0730008C073000819
:10574C0000093D0080B400AF024B1B681846BD46F3
:10575C0080BC70473400002080B500AFFFF7F2FF2B
:10576C000246054B5B681B0A03F007030349CB5C3D
:10577C0022FA03F3184680BD00100240A8730008FB
:10578C0080B500AFFFF7DEFF0246054B5B68DB0A16
:10579C0003F007030349CB5C22FA03F3184680BDE0
:1057AC0000100240A873000880B485B000AF786088
:1057BC000A4B1B680A4AA2FB03235B0A7A6802FBAA
:1057CC0003F3FB6000BFFB685A1EFA60002BF9D193
:1057DC0000BF00BF1437BD4680BC704734000020AA
:1057EC00D34D621080B586B000AF786000233B616A
:1057FC000023FB607B681B6803F00103002B7DD04A
:10580C000023FB754F4BDB6903F08053002B0DD14C
:10581C004C4BDB694B4A43F08053D361494BDB69FA
:10582C0003F08053BB60BB680123FB75464B1B68C0
:10583C0003F48073002B18D1434B1B68424A43F48A
:10584C0080731360FCF71AFF386108E0FCF716FF51
:10585C0002463B69D31A642B01D903236DE03A4B02
:10586C001B6803F48073002BF0D0364B1B6A03F4D7
:10587C004073FB60FB68002B2ED07B685B6803F4E5
:10588C004073FA689A4227D02E4B1B6A23F440735C
:10589C00FB602E4B01221A602C4B00221A60294A05
:1058AC00FB681362FB6803F00103002B14D0FCF7B8
:1058BC00E5FE38610AE0FCF7E1FE02463B69D31ACB
:1058CC0041F28832934201D9032336E01D4B1B6A07
:1058DC0003F00203002BEED01A4B1B6A23F4407228
:1058EC007B685B68174913430B62FB7D012B05D169
:1058FC00144BDB69134A23F08053D3617B681B681C
:10590C0003F00203002B08D00E4B5B6823F44042DB
:10591C007B689B680B4913434B607B681B6803F0E7
:10592C001003002B08D0074B5B6823F480027B68C4
:10593C00DB68044913434B60002318461837BD46F7
:10594C0080BD00BF00100240007000404004424285
:10595C0080B588B000AF786000237B610023FB61C9
:10596C0000233B610023FB600023BB617B68102B91
:10597C000AD07B68102B00F28A807B68012B45D003
:10598C007B68022B75D082E0464B5B68FB60454B15
:10599C001B6803F08073002B7BD0FB689B0C03F01F
:1059AC000F03414AD35C3B61FB6803F48033002B4B
:1059BC0015D03C4B5B685B0C03F001033B4AD35C9A
:1059CC007B61FB6803F48033002B0DD0384A7B6974
:1059DC00B2FBF3F23B6902FB03F3FB6104E03B69AE
:1059EC00344A02FB03F3FB612E4B5B6803F4800328
:1059FC00B3F5800F02D1FB69BB614AE0FB695B0028
:105A0C002D4AA2FB03235B08BB6142E0254B1B6ABA
:105A1C00FB60FB6803F44073B3F5807F08D1FB682F
:105A2C0003F00203002B03D04FF40043BB611FE0D3
:105A3C00FB6803F44073B3F5007F09D1194B5B6A23
:105A4C0003F00203002B03D049F64043BB610FE087
:105A5C00FB6803F44073B3F5407F1CD1114B1B68FA
:105A6C0003F40033002B16D04FF22443BB6112E039
:105A7C0011E0FFF785FE02460A4B5B689B0B03F0B7
:105A8C00030301335B00B2FBF3F3BB6104E000BF23
:105A9C0002E000BF00E000BFBB6918462037BD46DE
:105AAC0080BD00BF00100240C4730008D47300080E
:105ABC0000127A0000093D00ABAAAAAA80B582B0F8
:105ACC0000AF78607B68002B01D1012341E07B683B
